{"abi":[{"type":"function","name":"addPost","inputs":[{"name":"_post","type":"tuple","internalType":"struct Instagram.Post","components":[{"name":"description","type":"string","internalType":"string"},{"name":"uri","type":"string","internalType":"string"}]}],"outputs":[],"stateMutability":"nonpayable"},{"type":"function","name":"getAllPosts","inputs":[{"name":"_start","type":"uint256","internalType":"uint256"},{"name":"_end","type":"uint256","internalType":"uint256"}],"outputs":[{"name":"","type":"tuple[]","internalType":"struct Instagram.Post[]","components":[{"name":"description","type":"string","internalType":"string"},{"name":"uri","type":"string","internalType":"string"}]}],"stateMutability":"view"},{"type":"function","name":"getLikesOfPost","inputs":[{"name":"_postId","type":"uint256","internalType":"uint256"}],"outputs":[{"name":"","type":"uint256","internalType":"uint256"}],"stateMutability":"view"},{"type":"function","name":"getPost","inputs":[{"name":"_postId","type":"uint256","internalType":"uint256"}],"outputs":[{"name":"","type":"tuple","internalType":"struct Instagram.Post","components":[{"name":"description","type":"string","internalType":"string"},{"name":"uri","type":"string","internalType":"string"}]}],"stateMutability":"view"},{"type":"function","name":"getPostUser","inputs":[{"name":"_user","type":"address","internalType":"address"},{"name":"_postId","type":"uint256","internalType":"uint256"}],"outputs":[{"name":"","type":"tuple","internalType":"struct Instagram.Post","components":[{"name":"description","type":"string","internalType":"string"},{"name":"uri","type":"string","internalType":"string"}]}],"stateMutability":"view"},{"type":"function","name":"getPostsCounterByUser","inputs":[{"name":"_user","type":"address","internalType":"address"}],"outputs":[{"name":"","type":"uint256","internalType":"uint256"}],"stateMutability":"view"},{"type":"function","name":"getUri","inputs":[{"name":"_postId","type":"uint256","internalType":"uint256"}],"outputs":[{"name":"","type":"string","internalType":"string"}],"stateMutability":"view"},{"type":"function","name":"like","inputs":[{"name":"_postId","type":"uint256","internalType":"uint256"}],"outputs":[],"stateMutability":"nonpayable"},{"type":"function","name":"s_postCounterId","inputs":[],"outputs":[{"name":"","type":"uint256","internalType":"uint256"}],"stateMutability":"view"},{"type":"function","name":"unlike","inputs":[{"name":"_postId","type":"uint256","internalType":"uint256"}],"outputs":[],"stateMutability":"nonpayable"},{"type":"event","name":"Like","inputs":[{"name":"postId","type":"uint256","indexed":true,"internalType":"uint256"},{"name":"user","type":"address","indexed":false,"internalType":"address"}],"anonymous":false},{"type":"event","name":"PostAdded","inputs":[{"name":"postId","type":"uint256","indexed":true,"internalType":"uint256"},{"name":"description","type":"string","indexed":false,"internalType":"string"},{"name":"owner","type":"address","indexed":false,"internalType":"address"}],"anonymous":false},{"type":"event","name":"Unlike","inputs":[{"name":"postId","type":"uint256","indexed":true,"internalType":"uint256"},{"name":"user","type":"address","indexed":false,"internalType":"address"}],"anonymous":false},{"type":"error","name":"PostDoesNotExist","inputs":[{"name":"postId","type":"uint256","internalType":"uint256"}]}],"bytecode":{"object":"0x6080604052348015600f57600080fd5b50611b508061001f6000396000f3fe608060405234801561001057600080fd5b506004361061009e5760003560e01c806377f47e861161006657806377f47e861461017f57806382cfb2701461019b5780639be69d6c146101b9578063da0544aa146101e9578063e82935da146102195761009e565b80631fcda535146100a35780632895a7d8146100d357806340731c241461010357806374d21ae0146101335780637519995e1461014f575b600080fd5b6100bd60048036038101906100b89190610f8d565b610235565b6040516100ca9190610fd3565b60405180910390f35b6100ed60048036038101906100e8919061101a565b61027e565b6040516100fa91906111f0565b60405180910390f35b61011d60048036038101906101189190611212565b610516565b60405161012a9190611283565b60405180910390f35b61014d60048036038101906101489190611212565b6106bb565b005b610169600480360381019061016491906112a5565b6108e9565b6040516101769190611283565b60405180910390f35b610199600480360381019061019491906114ac565b610acc565b005b6101a3610c88565b6040516101b09190610fd3565b60405180910390f35b6101d360048036038101906101ce9190611212565b610c8e565b6040516101e09190610fd3565b60405180910390f35b61020360048036038101906101fe9190611212565b610d02565b604051610210919061153f565b60405180910390f35b610233600480360381019061022e9190611212565b610dfe565b005b6000600360008373ffffffffffffffffffffffffffffffffffffffff1673ffffffffffffffffffffffffffffffffffffffff168152602001908152602001600020549050919050565b606060008311801561028f57508282115b6102ce576040517f08c379a00000000000000000000000000000000000000000000000000000000081526004016102c5906115ad565b60405180910390fd5b816000541015610313576040517f08c379a000000000000000000000000000000000000000000000000000000000815260040161030a90611619565b60405180910390fd5b6000600184846103239190611668565b61032d919061169c565b905060008167ffffffffffffffff81111561034b5761034a6112ea565b5b60405190808252806020026020018201604052801561038457816020015b610371610f01565b8152602001906001900390816103695790505b50905060005b8281101561050a576001600082886103a2919061169c565b81526020019081526020016000206040518060400160405290816000820180546103cb906116ff565b80601f01602080910402602001604051908101604052809291908181526020018280546103f7906116ff565b80156104445780601f1061041957610100808354040283529160200191610444565b820191906000526020600020905b81548152906001019060200180831161042757829003601f168201915b5050505050815260200160018201805461045d906116ff565b80601f0160208091040260200160405190810160405280929190818152602001828054610489906116ff565b80156104d65780601f106104ab576101008083540402835291602001916104d6565b820191906000526020600020905b8154815290600101906020018083116104b957829003601f168201915b5050505050815250508282815181106104f2576104f1611730565b5b6020026020010181905250808060010191505061038a565b50809250505092915050565b61051e610f01565b8160005481118061052f5750600081145b1561057157806040517f018ef78a0000000000000000000000000000000000000000000000000000000081526004016105689190610fd3565b60405180910390fd5b6001600084815260200190815260200160002060405180604001604052908160008201805461059f906116ff565b80601f01602080910402602001604051908101604052809291908181526020018280546105cb906116ff565b80156106185780601f106105ed57610100808354040283529160200191610618565b820191906000526020600020905b8154815290600101906020018083116105fb57829003601f168201915b50505050508152602001600182018054610631906116ff565b80601f016020809104026020016040519081016040528092919081815260200182805461065d906116ff565b80156106aa5780601f1061067f576101008083540402835291602001916106aa565b820191906000526020600020905b81548152906001019060200180831161068d57829003601f168201915b505050505081525050915050919050565b806000548111806106cc5750600081145b1561070e57806040517f018ef78a0000000000000000000000000000000000000000000000000000000081526004016107059190610fd3565b60405180910390fd5b600060046000848152602001908152602001600020905060005b81805490508110156108ab573373ffffffffffffffffffffffffffffffffffffffff1682828154811061075e5761075d611730565b5b9060005260206000200160009054906101000a900473ffffffffffffffffffffffffffffffffffffffff1673ffffffffffffffffffffffffffffffffffffffff160361089e57600082600184805490506107b89190611668565b815481106107c9576107c8611730565b5b9060005260206000200160009054906101000a900473ffffffffffffffffffffffffffffffffffffffff1690508083838154811061080a57610809611730565b5b9060005260206000200160006101000a81548173ffffffffffffffffffffffffffffffffffffffff021916908373ffffffffffffffffffffffffffffffffffffffff160217905550828054806108635761086261175f565b5b6001900381819060005260206000200160006101000a81549073ffffffffffffffffffffffffffffffffffffffff02191690559055506108ab565b8080600101915050610728565b50827f59b64a402d5e7d57bd1da203ec10442e896570cfc641d11b1eb0d71a71469c14336040516108dc919061179d565b60405180910390a2505050565b6108f1610f01565b816000548111806109025750600081145b1561094457806040517f018ef78a00000000000000000000000000000000000000000000000000000000815260040161093b9190610fd3565b60405180910390fd5b600260008573ffffffffffffffffffffffffffffffffffffffff1673ffffffffffffffffffffffffffffffffffffffff16815260200190815260200160002060008481526020019081526020016000206040518060400160405290816000820180546109af906116ff565b80601f01602080910402602001604051908101604052809291908181526020018280546109db906116ff565b8015610a285780601f106109fd57610100808354040283529160200191610a28565b820191906000526020600020905b815481529060010190602001808311610a0b57829003601f168201915b50505050508152602001600182018054610a41906116ff565b80601f0160208091040260200160405190810160405280929190818152602001828054610a6d906116ff565b8015610aba5780601f10610a8f57610100808354040283529160200191610aba565b820191906000526020600020905b815481529060010190602001808311610a9d57829003601f168201915b50505050508152505091505092915050565b600081602001515111610b14576040517f08c379a0000000000000000000000000000000000000000000000000000000008152600401610b0b90611804565b60405180910390fd5b600080815480929190610b2690611824565b91905055508060016000805481526020019081526020016000206000820151816000019081610b559190611a18565b506020820151816001019081610b6b9190611a18565b5090505080600260003373ffffffffffffffffffffffffffffffffffffffff1673ffffffffffffffffffffffffffffffffffffffff1681526020019081526020016000206000805481526020019081526020016000206000820151816000019081610bd69190611a18565b506020820151816001019081610bec9190611a18565b50905050600360003373ffffffffffffffffffffffffffffffffffffffff1673ffffffffffffffffffffffffffffffffffffffff1681526020019081526020016000206000815480929190610c4090611824565b91905055506000547f04252f9458f5e6a7ca08253452fa6b47ae7e4e41f3638def7f399e2e3dd64c79826000015133604051610c7d929190611aea565b60405180910390a250565b60005481565b600081600054811180610ca15750600081145b15610ce357806040517f018ef78a000000000000000000000000000000000000000000000000000000008152600401610cda9190610fd3565b60405180910390fd5b6004600084815260200190815260200160002080549050915050919050565b606081600054811180610d155750600081145b15610d5757806040517f018ef78a000000000000000000000000000000000000000000000000000000008152600401610d4e9190610fd3565b60405180910390fd5b600160008481526020019081526020016000206001018054610d78906116ff565b80601f0160208091040260200160405190810160405280929190818152602001828054610da4906116ff565b8015610df15780601f10610dc657610100808354040283529160200191610df1565b820191906000526020600020905b815481529060010190602001808311610dd457829003601f168201915b5050505050915050919050565b80600054811180610e0f5750600081145b15610e5157806040517f018ef78a000000000000000000000000000000000000000000000000000000008152600401610e489190610fd3565b60405180910390fd5b60046000838152602001908152602001600020339080600181540180825580915050600190039060005260206000200160009091909190916101000a81548173ffffffffffffffffffffffffffffffffffffffff021916908373ffffffffffffffffffffffffffffffffffffffff160217905550817fda935a3772736202dd12b1bc54cb3460939e447d95d5648c6dbd89836121823a33604051610ef5919061179d565b60405180910390a25050565b604051806040016040528060608152602001606081525090565b6000604051905090565b600080fd5b600080fd5b600073ffffffffffffffffffffffffffffffffffffffff82169050919050565b6000610f5a82610f2f565b9050919050565b610f6a81610f4f565b8114610f7557600080fd5b50565b600081359050610f8781610f61565b92915050565b600060208284031215610fa357610fa2610f25565b5b6000610fb184828501610f78565b91505092915050565b6000819050919050565b610fcd81610fba565b82525050565b6000602082019050610fe86000830184610fc4565b92915050565b610ff781610fba565b811461100257600080fd5b50565b60008135905061101481610fee565b92915050565b6000806040838503121561103157611030610f25565b5b600061103f85828601611005565b925050602061105085828601611005565b9150509250929050565b600081519050919050565b600082825260208201905092915050565b6000819050602082019050919050565b600081519050919050565b600082825260208201905092915050565b60005b838110156110c05780820151818401526020810190506110a5565b60008484015250505050565b6000601f19601f8301169050919050565b60006110e882611086565b6110f28185611091565b93506111028185602086016110a2565b61110b816110cc565b840191505092915050565b6000604083016000830151848203600086015261113382826110dd565b9150506020830151848203602086015261114d82826110dd565b9150508091505092915050565b60006111668383611116565b905092915050565b6000602082019050919050565b60006111868261105a565b6111908185611065565b9350836020820285016111a285611076565b8060005b858110156111de57848403895281516111bf858261115a565b94506111ca8361116e565b925060208a019950506001810190506111a6565b50829750879550505050505092915050565b6000602082019050818103600083015261120a818461117b565b905092915050565b60006020828403121561122857611227610f25565b5b600061123684828501611005565b91505092915050565b6000604083016000830151848203600086015261125c82826110dd565b9150506020830151848203602086015261127682826110dd565b9150508091505092915050565b6000602082019050818103600083015261129d818461123f565b905092915050565b600080604083850312156112bc576112bb610f25565b5b60006112ca85828601610f78565b92505060206112db85828601611005565b9150509250929050565b600080fd5b7f4e487b7100000000000000000000000000000000000000000000000000000000600052604160045260246000fd5b611322826110cc565b810181811067ffffffffffffffff82111715611341576113406112ea565b5b80604052505050565b6000611354610f1b565b90506113608282611319565b919050565b600080fd5b600080fd5b600080fd5b600067ffffffffffffffff82111561138f5761138e6112ea565b5b611398826110cc565b9050602081019050919050565b82818337600083830152505050565b60006113c76113c284611374565b61134a565b9050828152602081018484840111156113e3576113e261136f565b5b6113ee8482856113a5565b509392505050565b600082601f83011261140b5761140a61136a565b5b813561141b8482602086016113b4565b91505092915050565b60006040828403121561143a576114396112e5565b5b611444604061134a565b9050600082013567ffffffffffffffff81111561146457611463611365565b5b611470848285016113f6565b600083015250602082013567ffffffffffffffff81111561149457611493611365565b5b6114a0848285016113f6565b60208301525092915050565b6000602082840312156114c2576114c1610f25565b5b600082013567ffffffffffffffff8111156114e0576114df610f2a565b5b6114ec84828501611424565b91505092915050565b600082825260208201905092915050565b600061151182611086565b61151b81856114f5565b935061152b8185602086016110a2565b611534816110cc565b840191505092915050565b600060208201905081810360008301526115598184611506565b905092915050565b7f5374617274206d7573742062652067726561746572207468616e203000000000600082015250565b6000611597601c836114f5565b91506115a282611561565b602082019050919050565b600060208201905081810360008301526115c68161158a565b9050919050565b7f456e642069732067726561746572207468616e20746f74616c20706f73747300600082015250565b6000611603601f836114f5565b915061160e826115cd565b602082019050919050565b60006020820190508181036000830152611632816115f6565b9050919050565b7f4e487b7100000000000000000000000000000000000000000000000000000000600052601160045260246000fd5b600061167382610fba565b915061167e83610fba565b925082820390508181111561169657611695611639565b5b92915050565b60006116a782610fba565b91506116b283610fba565b92508282019050808211156116ca576116c9611639565b5b92915050565b7f4e487b7100000000000000000000000000000000000000000000000000000000600052602260045260246000fd5b6000600282049050600182168061171757607f821691505b60208210810361172a576117296116d0565b5b50919050565b7f4e487b7100000000000000000000000000000000000000000000000000000000600052603260045260246000fd5b7f4e487b7100000000000000000000000000000000000000000000000000000000600052603160045260246000fd5b61179781610f4f565b82525050565b60006020820190506117b2600083018461178e565b92915050565b7f5572692063616e277420626520656d7074790000000000000000000000000000600082015250565b60006117ee6012836114f5565b91506117f9826117b8565b602082019050919050565b6000602082019050818103600083015261181d816117e1565b9050919050565b600061182f82610fba565b91507fffffffffffffffffffffffffffffffffffffffffffffffffffffffffffffffff820361186157611860611639565b5b600182019050919050565b60008190508160005260206000209050919050565b60006020601f8301049050919050565b600082821b905092915050565b6000600883026118ce7fffffffffffffffffffffffffffffffffffffffffffffffffffffffffffffffff82611891565b6118d88683611891565b95508019841693508086168417925050509392505050565b6000819050919050565b600061191561191061190b84610fba565b6118f0565b610fba565b9050919050565b6000819050919050565b61192f836118fa565b61194361193b8261191c565b84845461189e565b825550505050565b600090565b61195861194b565b611963818484611926565b505050565b5b818110156119875761197c600082611950565b600181019050611969565b5050565b601f8211156119cc5761199d8161186c565b6119a684611881565b810160208510156119b5578190505b6119c96119c185611881565b830182611968565b50505b505050565b600082821c905092915050565b60006119ef600019846008026119d1565b1980831691505092915050565b6000611a0883836119de565b9150826002028217905092915050565b611a2182611086565b67ffffffffffffffff811115611a3a57611a396112ea565b5b611a4482546116ff565b611a4f82828561198b565b600060209050601f831160018114611a825760008415611a70578287015190505b611a7a85826119fc565b865550611ae2565b601f198416611a908661186c565b60005b82811015611ab857848901518255600182019150602085019450602081019050611a93565b86831015611ad55784890151611ad1601f8916826119de565b8355505b6001600288020188555050505b505050505050565b60006040820190508181036000830152611b048185611506565b9050611b13602083018461178e565b939250505056fea26469706673582212201f02a59bc7acf9d1c40a83a05a690d836a49c6966eadc802b72495a5dc182eae64736f6c634300081a0033","linkReferences":{}},"methodIdentifiers":{"addPost((string,string))":"77f47e86","getAllPosts(uint256,uint256)":"2895a7d8","getLikesOfPost(uint256)":"9be69d6c","getPost(uint256)":"40731c24","getPostUser(address,uint256)":"7519995e","getPostsCounterByUser(address)":"1fcda535","getUri(uint256)":"da0544aa","like(uint256)":"e82935da","s_postCounterId()":"82cfb270","unlike(uint256)":"74d21ae0"},"id":0}