{"abi":[{"type":"function","name":"addPost","inputs":[{"name":"_post","type":"tuple","internalType":"struct Instagram.Post","components":[{"name":"description","type":"string","internalType":"string"},{"name":"uri","type":"string","internalType":"string"}]}],"outputs":[],"stateMutability":"nonpayable"},{"type":"function","name":"getAllPosts","inputs":[{"name":"_start","type":"uint256","internalType":"uint256"},{"name":"_end","type":"uint256","internalType":"uint256"}],"outputs":[{"name":"","type":"tuple[]","internalType":"struct Instagram.Post[]","components":[{"name":"description","type":"string","internalType":"string"},{"name":"uri","type":"string","internalType":"string"}]}],"stateMutability":"view"},{"type":"function","name":"getLikesOfPost","inputs":[{"name":"_postId","type":"uint256","internalType":"uint256"}],"outputs":[{"name":"","type":"uint256","internalType":"uint256"}],"stateMutability":"view"},{"type":"function","name":"getPost","inputs":[{"name":"_postId","type":"uint256","internalType":"uint256"}],"outputs":[{"name":"","type":"tuple","internalType":"struct Instagram.Post","components":[{"name":"description","type":"string","internalType":"string"},{"name":"uri","type":"string","internalType":"string"}]}],"stateMutability":"view"},{"type":"function","name":"getPostUser","inputs":[{"name":"_user","type":"address","internalType":"address"},{"name":"_postId","type":"uint256","internalType":"uint256"}],"outputs":[{"name":"","type":"tuple","internalType":"struct Instagram.Post","components":[{"name":"description","type":"string","internalType":"string"},{"name":"uri","type":"string","internalType":"string"}]}],"stateMutability":"view"},{"type":"function","name":"getPostsCounterByUser","inputs":[{"name":"_user","type":"address","internalType":"address"}],"outputs":[{"name":"","type":"uint256","internalType":"uint256"}],"stateMutability":"view"},{"type":"function","name":"getUri","inputs":[{"name":"_postId","type":"uint256","internalType":"uint256"}],"outputs":[{"name":"","type":"string","internalType":"string"}],"stateMutability":"view"},{"type":"function","name":"like","inputs":[{"name":"_postId","type":"uint256","internalType":"uint256"}],"outputs":[],"stateMutability":"nonpayable"},{"type":"function","name":"s_postCounterId","inputs":[],"outputs":[{"name":"","type":"uint256","internalType":"uint256"}],"stateMutability":"view"},{"type":"function","name":"unlike","inputs":[{"name":"_postId","type":"uint256","internalType":"uint256"}],"outputs":[],"stateMutability":"nonpayable"},{"type":"event","name":"Like","inputs":[{"name":"postId","type":"uint256","indexed":true,"internalType":"uint256"},{"name":"user","type":"address","indexed":false,"internalType":"address"}],"anonymous":false},{"type":"event","name":"PostAdded","inputs":[{"name":"postId","type":"uint256","indexed":true,"internalType":"uint256"},{"name":"description","type":"string","indexed":false,"internalType":"string"},{"name":"owner","type":"address","indexed":false,"internalType":"address"}],"anonymous":false},{"type":"event","name":"Unlike","inputs":[{"name":"postId","type":"uint256","indexed":true,"internalType":"uint256"},{"name":"user","type":"address","indexed":false,"internalType":"address"}],"anonymous":false},{"type":"error","name":"PostDoesNotExist","inputs":[{"name":"postId","type":"uint256","internalType":"uint256"}]}],"bytecode":{"object":"0x6080604052348015600f57600080fd5b5061106e8061001f6000396000f3fe608060405234801561001057600080fd5b506004361061009e5760003560e01c806377f47e861161006657806377f47e861461014757806382cfb2701461015a5780639be69d6c14610163578063da0544aa14610176578063e82935da1461019657600080fd5b80631fcda535146100a35780632895a7d8146100df57806340731c24146100ff57806374d21ae01461011f5780637519995e14610134575b600080fd5b6100cc6100b1366004610b5c565b6001600160a01b031660009081526003602052604090205490565b6040519081526020015b60405180910390f35b6100f26100ed366004610b7e565b6101a9565b6040516100d69190610c1d565b61011261010d366004610c82565b6103ad565b6040516100d69190610c9b565b61013261012d366004610c82565b610539565b005b610112610142366004610cae565b6106b6565b610132610155366004610d7d565b610852565b6100cc60005481565b6100cc610171366004610c82565b61098c565b610189610184366004610c82565b6109d1565b6040516100d69190610e38565b6101326101a4366004610c82565b610aa5565b606060006101b78484610e61565b6101c2906001610e74565b905060008167ffffffffffffffff8111156101df576101df610cd8565b60405190808252806020026020018201604052801561022457816020015b60408051808201909152606080825260208201528152602001906001900390816101fd5790505b50905060005b828110156103a257600160006102408389610e74565b815260200190815260200160002060405180604001604052908160008201805461026990610e87565b80601f016020809104026020016040519081016040528092919081815260200182805461029590610e87565b80156102e25780601f106102b7576101008083540402835291602001916102e2565b820191906000526020600020905b8154815290600101906020018083116102c557829003601f168201915b505050505081526020016001820180546102fb90610e87565b80601f016020809104026020016040519081016040528092919081815260200182805461032790610e87565b80156103745780601f1061034957610100808354040283529160200191610374565b820191906000526020600020905b81548152906001019060200180831161035757829003601f168201915b50505050508152505082828151811061038f5761038f610ebb565b602090810291909101015260010161022a565b509150505b92915050565b6040805180820190915260608082526020820152816000548111806103d0575080155b156103f55760405162c77bc560e11b8152600481018290526024015b60405180910390fd5b60008381526001602052604090819020815180830190925280548290829061041c90610e87565b80601f016020809104026020016040519081016040528092919081815260200182805461044890610e87565b80156104955780601f1061046a57610100808354040283529160200191610495565b820191906000526020600020905b81548152906001019060200180831161047857829003601f168201915b505050505081526020016001820180546104ae90610e87565b80601f01602080910402602001604051908101604052809291908181526020018280546104da90610e87565b80156105275780601f106104fc57610100808354040283529160200191610527565b820191906000526020600020905b81548152906001019060200180831161050a57829003601f168201915b50505050508152505091505b50919050565b80600054811180610548575080155b156105685760405162c77bc560e11b8152600481018290526024016103ec565b6000828152600460205260408120905b815481101561067b57336001600160a01b031682828154811061059d5761059d610ebb565b6000918252602090912001546001600160a01b03160361067357815460009083906105ca90600190610e61565b815481106105da576105da610ebb565b9060005260206000200160009054906101000a90046001600160a01b031690508083838154811061060d5761060d610ebb565b9060005260206000200160006101000a8154816001600160a01b0302191690836001600160a01b031602179055508280548061064b5761064b610ed1565b600082815260209020810160001990810180546001600160a01b03191690550190555061067b565b600101610578565b5060405133815283907f59b64a402d5e7d57bd1da203ec10442e896570cfc641d11b1eb0d71a71469c149060200160405180910390a2505050565b6040805180820190915260608082526020820152816000548111806106d9575080155b156106f95760405162c77bc560e11b8152600481018290526024016103ec565b6001600160a01b038416600090815260026020908152604080832086845290915290819020815180830190925280548290829061073590610e87565b80601f016020809104026020016040519081016040528092919081815260200182805461076190610e87565b80156107ae5780601f10610783576101008083540402835291602001916107ae565b820191906000526020600020905b81548152906001019060200180831161079157829003601f168201915b505050505081526020016001820180546107c790610e87565b80601f01602080910402602001604051908101604052809291908181526020018280546107f390610e87565b80156108405780601f1061081557610100808354040283529160200191610840565b820191906000526020600020905b81548152906001019060200180831161082357829003601f168201915b50505050508152505091505092915050565b60008160200151511161089c5760405162461bcd60e51b81526020600482015260126024820152715572692063616e277420626520656d70747960701b60448201526064016103ec565b6000805490806108ab83610ee7565b9091555050600080548152600160205260409020815182919081906108d09082610f4f565b50602082015160018201906108e59082610f4f565b5050336000908152600260209081526040808320835484529091529020825183925081906109139082610f4f565b50602082015160018201906109289082610f4f565b5050336000908152600360205260408120805492509061094783610ee7565b909155505060005481516040517f04252f9458f5e6a7ca08253452fa6b47ae7e4e41f3638def7f399e2e3dd64c799161098191339061100e565b60405180910390a250565b60008160005481118061099d575080155b156109bd5760405162c77bc560e11b8152600481018290526024016103ec565b505060009081526004602052604090205490565b6060816000548111806109e2575080155b15610a025760405162c77bc560e11b8152600481018290526024016103ec565b6000838152600160208190526040909120018054610a1f90610e87565b80601f0160208091040260200160405190810160405280929190818152602001828054610a4b90610e87565b8015610a985780601f10610a6d57610100808354040283529160200191610a98565b820191906000526020600020905b815481529060010190602001808311610a7b57829003601f168201915b5050505050915050919050565b80600054811180610ab4575080155b15610ad45760405162c77bc560e11b8152600481018290526024016103ec565b600082815260046020908152604080832080546001810182559084529282902090920180546001600160a01b03191633908117909155915191825283917fda935a3772736202dd12b1bc54cb3460939e447d95d5648c6dbd89836121823a910160405180910390a25050565b80356001600160a01b0381168114610b5757600080fd5b919050565b600060208284031215610b6e57600080fd5b610b7782610b40565b9392505050565b60008060408385031215610b9157600080fd5b50508035926020909101359150565b6000815180845260005b81811015610bc657602081850181015186830182015201610baa565b506000602082860101526020601f19601f83011685010191505092915050565b6000815160408452610bfb6040850182610ba0565b905060208301518482036020860152610c148282610ba0565b95945050505050565b6000602082016020835280845180835260408501915060408160051b86010192506020860160005b82811015610c7657603f19878603018452610c61858351610be6565b94506020938401939190910190600101610c45565b50929695505050505050565b600060208284031215610c9457600080fd5b5035919050565b602081526000610b776020830184610be6565b60008060408385031215610cc157600080fd5b610cca83610b40565b946020939093013593505050565b634e487b7160e01b600052604160045260246000fd5b600082601f830112610cff57600080fd5b813567ffffffffffffffff811115610d1957610d19610cd8565b604051601f8201601f19908116603f0116810167ffffffffffffffff81118282101715610d4857610d48610cd8565b604052818152838201602001851015610d6057600080fd5b816020850160208301376000918101602001919091529392505050565b600060208284031215610d8f57600080fd5b813567ffffffffffffffff811115610da657600080fd5b820160408185031215610db857600080fd5b6040805190810167ffffffffffffffff81118282101715610ddb57610ddb610cd8565b604052813567ffffffffffffffff811115610df557600080fd5b610e0186828501610cee565b825250602082013567ffffffffffffffff811115610e1e57600080fd5b610e2a86828501610cee565b602083015250949350505050565b602081526000610b776020830184610ba0565b634e487b7160e01b600052601160045260246000fd5b818103818111156103a7576103a7610e4b565b808201808211156103a7576103a7610e4b565b600181811c90821680610e9b57607f821691505b60208210810361053357634e487b7160e01b600052602260045260246000fd5b634e487b7160e01b600052603260045260246000fd5b634e487b7160e01b600052603160045260246000fd5b600060018201610ef957610ef9610e4b565b5060010190565b601f821115610f4a57806000526020600020601f840160051c81016020851015610f275750805b601f840160051c820191505b81811015610f475760008155600101610f33565b50505b505050565b815167ffffffffffffffff811115610f6957610f69610cd8565b610f7d81610f778454610e87565b84610f00565b6020601f821160018114610fb15760008315610f995750848201515b600019600385901b1c1916600184901b178455610f47565b600084815260208120601f198516915b82811015610fe15787850151825560209485019460019092019101610fc1565b5084821015610fff5786840151600019600387901b60f8161c191681555b50505050600190811b01905550565b6040815260006110216040830185610ba0565b905060018060a01b0383166020830152939250505056fea264697066735822122053990b9d2a1632ddf48d01c864d92ada44a210c9f0552663049921617a08ba5664736f6c634300081a0033","linkReferences":{}},"methodIdentifiers":{"addPost((string,string))":"77f47e86","getAllPosts(uint256,uint256)":"2895a7d8","getLikesOfPost(uint256)":"9be69d6c","getPost(uint256)":"40731c24","getPostUser(address,uint256)":"7519995e","getPostsCounterByUser(address)":"1fcda535","getUri(uint256)":"da0544aa","like(uint256)":"e82935da","s_postCounterId()":"82cfb270","unlike(uint256)":"74d21ae0"},"id":0}